:100000000C942A000C94D4310C9401320C942E32AE
:100010000C9447000C948A2A0C9447000C944700D7
:100020000C9447000C944E210C9447000C94CB1A6E
:100030000C9447000C9447000C9447000C94470024
:100040000C9447000C9447000C9447000C94470014
:100050000C94470011241FBECFE5D8E0DEBFCDBF12
:1000600011E0A0E6B0E0E8E4FEE702C005900D92E2
:10007000A438B107D9F711E0A4E8B1E001C01D929E
:10008000AD3FB107E1F70E945C3E0C94223F0C9417
:100090000000A0E3B0E0EFE4F0E00C94A63EA8E09E
:1000A0004E010894811C911CF401BA2F1192BA954B
:1000B000E9F729833A834B835C836D837E838F8347
:1000C0009887CE010996FC011192AA95E9F7A986B5
:1000D000BA86CB86DC86ED86FE860F87188B298153
:1000E0003A814B815C812DA73EA74FA758AB790180
:1000F0008A018FEF9FEFA0E0B0E0E822F9220A2307
:100100001B231A014424552429853A854B855C8597
:1001100029A73AA74BA75CA759016A01A822B922CF
:10012000CA22DB223A0188249924C601B501A8011C
:1001300097010E94653E6DA37EA38FA398A7C4017B
:10014000B3010E94653E69A37AA38BA39CA3C60159
:10015000B501A20191010E94653E7B018C01C401A1
:10016000B3010E94653E5B016C0189A19AA1ABA11C
:10017000BCA18E0D9F1DA01FB11F89A39AA3ABA385
:10018000BCA32DA13EA14FA158A5CA01AA27BB27F8
:1001900029A13AA14BA15CA1280F391F4A1F5B1F5F
:1001A00029A33AA34BA35CA32E153F054007510793
:1001B00040F480E090E0A1E0B0E0A80EB91ECA1EB5
:1001C000DB1E89A19AA1ABA1BCA19D0144275527A3
:1001D0002A0D3B1D4C1D5D1D2D8F3E8F4F8F58A34B
:1001E0006C01BB24AA248DA19EA1AFA1B8A5A070CB
:1001F000B070A80EB91ECA1EDB1EA98EBA8ECB8E99
:10020000DC8E9A8C8B8C7C8C9E8D6F8D78A1FE0100
:10021000719688E0DF011D928A95E9F72D8B9E8B00
:100220006F8B788F2D853E854F8558896DA57EA56E
:100230008FA598A90E94653E7B018C012D813E818E
:100240004F81588569A57AA58BA59CA50E94653E1E
:10025000E60EF71E081F191F6D897E898F89988DFC
:100260006E0D7F1D801F911F6D8B7E8B8F8B988FE6
:10027000EE892A2D392D482D572D7E2F8F89988D67
:10028000E096E2E10C94C23EEF92FF920F93DF936F
:10029000CF93CDB7DEB760970FB6F894DEBF0FBE31
:1002A000CDBFA82F002309F461C07E010894E11C92
:1002B000F11C88E0F70111928A95E9F729833A83C6
:1002C0004B835C836D837E83AF83988780E2801B42
:1002D000E82FFF27E7FDF09549815A816B817C81EA
:1002E000181684F019861A861B861C86882799277B
:1002F0008E1B9F0B04C0440F551F661F771F8A95E6
:10030000D2F728C0202F332727FD3095DB01CA0103
:10031000022E04C0880F991FAA1FBB1F0A94D2F790
:1003200089879A87AB87BC8704C076956795579570
:100330004795EA95D2F78D819E81AF81B88504C03B
:10034000880F991FAA1FBB1F2A95D2F7482B592B3C
:100350006A2B7B2B4D875E876F87788B29853A8543
:100360004B855C856D857E85AF8598898A2F6096E3
:100370000FB6F894DEBF0FBECDBFCF91DF910F91C6
:10038000FF90EF900895EF92FF920F931F937B01E0
:100390008C0120E030E040E05FE40E94E40B882321
:1003A0008CF0C801B70120E030E040E05FE40E943B
:1003B000B0090E94440C9B01AC01205030404040E9
:1003C000504806C0C801B7010E94440C9B01AC0113
:1003D000B901CA011F910F91FF90EF900895AEE50A
:1003E000B0E0E5EFF1E00C94A63EA8E04E010894E1
:1003F000811C911CF4016A2E11926A94E9F72983F9
:100400003A834B835C836D837E838F839887CE0191
:100410000996FC011192AA95E9F7A986BA86CB86BE
:10042000DC86ED86FE860F87188B29843A844B8400
:100430005C84ED84FE840F85188969807A808B80C6
:100440009C806DA67EA68FA698AA6D807E808F80E8
:100450009884E114F1040105110509F0B3C3621495
:1004600073048404950408F03DC100E0201600E008
:10047000300601E0400600E0500688F41FEF211628
:1004800031044104510439F030F048E0E42EF12CFD
:10049000012D112D18C0EE24FF24870114C020E087
:1004A000221620E0320620E0420621E0520630F01B
:1004B00038E1E32EF12C012D112D05C020E1E22EB3
:1004C000F12C012D112DD201C1010E2C04C0B695C5
:1004D000A795979587950A94D2F783589F4FDC018B
:1004E0002C9180E290E0A0E0B0E08E199F09A00B73
:1004F000B10B7C018D01E21AF10801091109E11427
:10050000F10401051105A1F10E2C04C0220C331CCD
:10051000441C551C0A94D2F7A40193010E2C04C06C
:10052000220F331F441F551F0A94D2F780E290E038
:100530008E199F096DA47EA48FA498A804C09694D8
:100540008794779467948A95D2F7622A732A842ACB
:10055000952AADA4BEA4CFA4D8A804C0AA0CBB1CE5
:10056000CC1CDD1CEA94D2F7ADA6BEA6CFA6D8AAB5
:100570006201EE24FF24CDAADEAAEFAAF8AE920112
:1005800081012070307009AF1AAF2BAF3CAFC401AE
:10059000B301A70196010E94843E7B018C01C40136
:1005A000B3012DA93EA94FA958AD0E94843EC901AF
:1005B000DA013C014D01C401B30129AD3AAD4BADA7
:1005C0005CAD0E94653E9B01AC018701FF24EE24D7
:1005D000ADA4BEA4CFA4D8A8C601AA27BB275701A3
:1005E0006801A82AB92ACA2ADB2AA216B306C406B9
:1005F000D506E0F408946108710881089108A20CFE
:10060000B31CC41CD51CA214B304C404D50470F0DC
:10061000A216B306C406D50648F40894610871080A
:1006200081089108A20CB31CC41CD51CA21AB30AE1
:10063000C40AD50AC601B5012DA93EA94FA958ADD6
:100640000E94843E7B018C01C601B5012DA93EA903
:100650004FA958AD0E94843EC901DA015C016D01C9
:10066000C601B50129AD3AAD4BAD5CAD0E94653E0A
:100670009B01AC018701FF24EE248DA59EA5AFA5AB
:10068000B8A9A070B070E82AF92A0A2B1B2BE21631
:10069000F30604071507C0F40894A108B108C108BF
:1006A000D108E20CF31C041D151DE214F30404052B
:1006B000150550F0E216F3060407150728F4089410
:1006C000A108B108C108D108D3019927882786015C
:1006D0007501E82AF92A0A2B1B2BE9AAFAAA0BAB07
:1006E0001CABCFC4211431044104510471F461E006
:1006F00070E080E090E020E030E040E050E00E94D8
:10070000843EC901DA011C012D0100E0201600E041
:10071000300601E0400600E0500688F41FEF211685
:1007200031044104510431F028F048E050E060E029
:1007300070E017C040E050E060E070E012C020E0E0
:10074000221620E0320620E0420621E0520628F080
:1007500048E150E060E070E004C040E150E060E05B
:1007600070E0D201C101042E04C0B695A7959795FB
:1007700087950A94D2F783589F4FDC012C91E0E2D1
:10078000EE2EF12C012D112DD801C701841B950BE4
:10079000A60BB70B821B9109A109B1090097A1050E
:1007A000B10561F464015301A218B308C408D50867
:1007B00031E0632E712C812C912C1EC16F968FAF6E
:1007C0006F97082E04C0220C331C441C551C0A943D
:1007D000D2F7EE2DE81B640153010E2E04C0D6940F
:1007E000C794B794A7940A94D2F7A40193016F9683
:1007F0000FAC6F9704C0220F331F441F551F0A947C
:10080000D2F76DA47EA48FA498A80E2E04C096944F
:100810008794779467940A94D2F784017301E22A4B
:10082000F32A042B152BE9A6FAA60BA71CA7320165
:1008300088249924920181012070307021960CAF98
:100840001DAF2EAF3FAF2197C601B501A4019301A3
:100850000E94843E7B018C01C601B501A401930175
:100860000E94843EC901DA0125968CAF9DAFAEAFE0
:10087000BFAF2597BC01CD0121962CAD3DAD4EAD4E
:100880005FAD21970E94653E9B01AC018701FF246B
:10089000EE24A9A4BAA4CBA4DCA4C601AA27BB2732
:1008A0005C016D01AE28BF28C02AD12AA216B3066A
:1008B000C406D50660F525966CAD7DAD8EAD9FADB9
:1008C0002597615070408040904025966CAF7DAF79
:1008D0008EAF9FAF2597A20CB31CC41CD51CA214CD
:1008E000B304C404D50498F0A216B306C406D50612
:1008F00070F4615070408040904025966CAF7DAFA1
:100900008EAF9FAF2597A20CB31CC41CD51CA21A96
:10091000B30AC40AD50AC601B501A40193010E9415
:10092000843E7B018C01C601B501A40193010E94A4
:10093000843EC901DA013C014D01C401B301219695
:100940002CAD3DAD4EAD5FAD21970E94653E9B0144
:10095000AC018701FF24EE2489A59AA5ABA5BCA50F
:10096000A070B07057016801A82AB92ACA2ADB2AE8
:10097000A216B306C406D506E0F40894610871080F
:1009800081089108A20CB31CC41CD51CA214B3048A
:10099000C404D50470F0A216B306C406D50648F404
:1009A00008946108710881089108A20CB31CC41C4A
:1009B000D51C8DA59EA5AFA5B8A96F960FAC6F9756
:1009C00004C0880F991FAA1FBB1F0A94D2F78DA7D6
:1009D0009EA7AFA7B8ABA21AB30AC40AD50A259638
:1009E000ECACFDAC0EAD1FAD2597D701992788273C
:1009F000682A792A8A2A9B2A820122273327299664
:100A00000CAF1DAF2EAF3FAF2997A20191014070EF
:100A100050702D962CAF3DAF4EAF5FAF2D97C601F6
:100A2000B50129962CAD3DAD4EAD5FAD29970E9425
:100A3000843E7B018C01C601B50129962CAD3DADEC
:100A40004EAD5FAD29970E94843EC901DA016196DF
:100A50008CAF9DAFAEAFBFAF6197BC01CD012D96FE
:100A60002CAD3DAD4EAD5FAD2D970E94653E9B0117
:100A7000AC018701FF24EE24ADA4BEA4CFA4D8A866
:100A8000C601AA27BB2757016801A82AB92ACA2A82
:100A9000DB2AA216B306C406D50660F561966CADD6
:100AA0007DAD8EAD9FAD61976150704080409040AC
:100AB00061966CAF7DAF8EAF9FAF6197A20CB31CF8
:100AC000C41CD51CA214B304C404D50498F0A21607
:100AD000B306C406D50670F4615070408040904063
:100AE00061966CAF7DAF8EAF9FAF6197A20CB31CC8
:100AF000C41CD51CA21AB30AC40AD50AC601B50182
:100B000029962CAD3DAD4EAD5FAD29970E94843E38
:100B10007B018C01C601B50129962CAD3DAD4EADD2
:100B20005FAD29970E94843EC901DA015C016D0125
:100B3000C601B5012D962CAD3DAD4EAD5FAD2D97E7
:100B40000E94653E9B01AC018701FF24EE248DA528
:100B50009EA5AFA5B8A9A070B070E82AF92A0A2B03
:100B60001B2BE216F30604071507C0F40894A1082E
:100B7000B108C108D108E20CF31C041D151DE214D4
:100B8000F3040405150550F0E216F30604071507F3
:100B900028F40894A108B108C108D1086196ECAC0A
:100BA000FDAC0EAD1FAD6197D7019927882796013F
:100BB0008501082B192B2A2B3B2B09AB1AAB2BAB2E
:100BC0003CAB62C26E147F048006910608F451C2E9
:100BD00020E0E21620E0F20621E0020720E0120702
:100BE00088F43FEFE316F1040105110531F028F018
:100BF00048E050E060E070E017C040E050E060E0A6
:100C000070E012C040E0E41640E0F40640E0040763
:100C100041E0140728F048E150E060E070E004C0D3
:100C200040E150E060E070E0D801C701042E04C04C
:100C3000B695A795979587950A94D2F783589F4FB5
:100C4000DC012C9130E2A32EB12CC12CD12CD60189
:100C5000C501841B950BA60BB70B821B9109A1093B
:100C6000B1090097A105B10589F4E614F704080558
:100C7000190508F4F2C16DA47EA48FA498A862148B
:100C800073048404950408F0E8C1F3C16E968FAF35
:100C90006E97082E04C0EE0CFF1C001F111F0A9453
:100CA000D2F76A2D681BD201C101062E04C0B69589
:100CB000A795979587950A94D2F75C016D01AE28A8
:100CC000BF28C02AD12AADA2BEA2CFA2D8A6720147
:100CD00061016E960FAC6E9704C0CC0CDD1CEE1C4F
:100CE000FF1C0A94D2F7C9A2DAA2EBA2FCA264010B
:100CF0005301062E04C0D694C794B794A7940A94BF
:100D0000D2F7D401C3016E960FAC6E9704C0880F62
:100D1000991FAA1FBB1F0A94D2F7EDA4FEA40FA52A
:100D200018A904C016950795F794E7946A95D2F729
:100D300037014801682A792A8A2A9B2A6D8E7E8E7D
:100D40008F8E98A2EDA0FEA00FA118A538018824CF
:100D50009924980187012070307065960CAF1DAF03
:100D60002EAF3FAF6597C601B501A40193010E9464
:100D7000843E7B018C01C601B501A40193010E9450
:100D8000843EC901DA011C012D01C201B101659641
:100D90002CAD3DAD4EAD5FAD65970E94653E9B01AC
:100DA000AC018701FF24EE24AD8CBE8CCF8CD8A083
:100DB000C601AA27BB2757016801A82AB92ACA2A4F
:100DC000DB2AA216B306C406D50600F5089421084E
:100DD000310841085108EDA0FEA00FA118A5AE0CE6
:100DE000BF1CC01ED11EAE14BF04C006D10670F0D9
:100DF000A216B306C406D50648F4089421083108A3
:100E000041085108AE0CBF1CC01ED11EA21AB30A65
:100E1000C40AD50AC601B501A40193010E94843E0B
:100E20007B018C01C601B501A40193010E94843E9F
:100E3000C901DA013C014D01C401B30165962CAD35
:100E40003DAD4EAD5FAD65970E94653E9B01AC0127
:100E50008701FF24EE248D8D9E8DAF8DB8A1A070EB
:100E6000B07057016801A82AB92ACA2ADB2AA2163B
:100E7000B306C406D50600F5089461087108810818
:100E800091086DA17EA18FA198A5A60EB71EC81EC0
:100E9000D91EA616B706C806D90670F0A216B30664
:100EA000C406D50648F408946108710881089108C1
:100EB000A60EB71EC81ED91ED601C501821B930BF4
:100EC000A40BB50B898F9A8FAB8FBC8FD10199275B
:100ED000882764015301A82AB92ACA2ADB2AA9AAA9
:100EE000BAAACBAADCAA860175012FEF3FEF40E03A
:100EF00050E0E222F32204231523A6016627772778
:100F00006D964CAF5DAF6EAF7FAF6D97A9A0BAA0E5
:100F1000CBA0DCA06FEF7FEF80E090E0A622B722AD
:100F2000C822D92289A19AA1ABA1BCA11D01442448
:100F30005524C801B701A60195010E94653E699636
:100F40006CAF7DAF8EAF9FAF6997C801B701A201AB
:100F500091010E94653E3B014C016D966CAD7DADEB
:100F60008EAD9FAD6D97A60195010E94653E7B01F8
:100F70008C016D966CAD7DAD8EAD9FAD6D97A20170
:100F800091010E94653E5B016C01A8019701260D4D
:100F9000371D481D591D69966CAC7DAC8EAC9FAC5D
:100FA0006997C401AA27BB27280F391F4A1F5B1F57
:100FB0002E153F054007510748F4E12CF12C61E064
:100FC000062F112DAE0CBF1CC01ED11ECA01AA27B0
:100FD000BB27BC01CD016A0D7B1D8C1D9D1D698C3D
:100FE0007A8C8B8C9C8C661677068806990640F165
:100FF000661577058805990509F043C0D901992739
:10100000882769962CAD3DAD4EAD5FAD69974070B8
:101010005070820F931FA41FB51F2DA53EA54FA58D
:1010200058A96E960FAC6E9704C0220F331F441F51
:10103000551F0A94D2F7281739074A075B0708F5A6
:1010400009A91AA92BA93CA9015010402040304001
:1010500009AB1AAB2BAB3CAB14C06624772443011D
:1010600021E030E040E050E029AB3AAB4BAB5CAB69
:101070000BC066247724430119AA1AAA1BAA1CAA2A
:1010800003C0662477244301FE01719688E0DF01E6
:101090001D928A95E9F7A9A8BAA8CBA8DCA8A98AC5
:1010A000BA8ACB8ADC8A6D8A7E8A8F8A988E29A931
:1010B0003A894B895C89662D7E898F89988DC25AC1
:1010C000DF4FE2E10C94C23EA0E0B0E0EAE6F8E0D7
:1010D0000C94A63EDC012B01FA019C91923008F49D
:1010E00039C1EB018881823008F433C1943069F44E
:1010F000843009F02FC111969C911197898198171E
:1011000009F428C1A5E7B0E025C1843009F421C164
:101110008230A9F4923009F01DC19A01AD0188E036
:10112000EA010990AE01E90109929E018150C1F7DF
:10113000E201898111969C918923818308C19230B3
:1011400009F407C112962D903C901397EB018A8108
:101150009B811496AD90BD90CD90DC901797EC805C
:10116000FD800E811F819101281B390BB90137FFCA
:1011700004C066277727621B730B603271050CF081
:1011800061C0121613066CF537014801062E04C023
:1011900096948794779467940A94D2F721E030E08C
:1011A00040E050E004C0220F331F441F551F6A95D2
:1011B000D2F721503040404050402E213F21402363
:1011C0005123211531054105510521F021E030E081
:1011D00040E050E079018A01E628F728082919291A
:1011E0003CC0232BD1F1260E371E35014601062EB9
:1011F00004C096948794779467940A94D2F721E078
:1012000030E040E050E004C0220F331F441F551F60
:101210006A95D2F721503040404050402A213B216E
:101220004C215D21211531054105510521F021E0B9
:1012300030E040E050E059016A01A628B728C828EC
:10124000D9280BC0821593052CF01C01AA24BB24BD
:10125000650103C0EE24FF24870111969C91D20101
:1012600011968C91981709F445C0992339F0A8017B
:1012700097012A193B094C095D0906C0A601950191
:101280002E193F09400B510B57FD08C011823382C4
:10129000228224833583468357831DC081E0818366
:1012A0003382228288279927DC01821B930BA40BAF
:1012B000B50B84839583A683B7830DC0220F331F9C
:1012C000441F551F2483358346835783828193812E
:1012D0000197938382832481358146815781DA0186
:1012E000C9010197A109B1098F5F9F4FAF4FBF435C
:1012F00028F30BC0918333822282EA0CFB1C0C1D65
:101300001D1DE482F5820683178383E08083248198
:1013100035814681578157FF1AC0C901AA2797FD19
:10132000A095BA2F81709070A070B07056954795B7
:1013300037952795822B932BA42BB52B84839583EC
:10134000A683B78382819381019693838283DF0191
:1013500001C0D201CD01CDB7DEB7E2E10C94C23EAF
:10136000A0E2B0E0E6EBF9E00C94B23E69837A8348
:101370008B839C832D833E834F835887E9E0EE2E39
:10138000F12CEC0EFD1ECE010196B7010E946D0DF1
:101390008E010F5E1F4FCE010596B8010E946D0DA4
:1013A0008A8991E089278A8BC701B801AE01475E1F
:1013B0005F4F0E9464080E94980CA096E6E00C948F
:1013C000CE3EA0E2B0E0E7EEF9E00C94B23E6983D5
:1013D0007A838B839C832D833E834F835887F9E0E8
:1013E000EF2EF12CEC0EFD1ECE010196B7010E94EE
:1013F0006D0D8E010F5E1F4FCE010596B8010E9444
:101400006D0DC701B801AE01475E5F4F0E946408D1
:101410000E94980CA096E6E00C94CE3EA0E2B0E0CC
:10142000E4E1FAE00C94A63E69837A838B839C8383
:101430002D833E834F835887CE010196BE01675F9F
:101440007F4F0E946D0DCE010596BE016F5E7F4FEE
:101450000E946D0D9985923088F089898230C8F09C
:10146000943019F4823051F404C0843029F492305D
:1014700081F485E790E0C6C0923049F420E09A8577
:101480008A89981321E02A87CE010996BBC0823051
:1014900049F420E09A858A89981321E02A8BCE01AD
:1014A0004196B0C02D843E844F8458886D887E88D4
:1014B0008F88988CEE24FF248701AA24BB24650121
:1014C00040E050E060E070E0E0E0F0E0C1018170F9
:1014D0009070892BE9F0E60CF71C081D191D9A0184
:1014E000AB012A0D3B1D4C1D5D1D80E090E0A0E08E
:1014F000B0E0E614F7040805190520F481E090E057
:10150000A0E0B0E0BA01A901480F591F6A1F7B1F74
:10151000AA0CBB1CCC1CDD1C97FE08C081E090E02F
:10152000A0E0B0E0A82AB92ACA2ADB2A3196E03224
:10153000F10549F0660C771C881C991C5694479459
:1015400037942794C3CFFA85EA892B893C898B8508
:101550009C85280F391F2E5F3F4F17C0CA0181702D
:101560009070892B61F016950795F794E79480E0C9
:1015700090E0A0E0B0E8E82AF92A0A2B1B2B769528
:101580006795579547952F5F3F4F77FDE7CF0CC085
:10159000440F551F661F771F17FD4160EE0CFF1C9F
:1015A000001F111F21503040403090E0590790E05B
:1015B000690790E4790760F32B8F3C8FDB01CA0148
:1015C0008F779070A070B07080349105A105B1053F
:1015D00061F447FD0AC0E114F1040105110529F089
:1015E000405C5F4F6F4F7F4F40781A8EFE1711F0AF
:1015F00081E08A8F4D8F5E8F6F8F78A383E0898F14
:10160000CE0149960E94980CA096E2E10C94C23E4D
:10161000A8E1B0E0EEE0FBE00C94AE3E69837A8393
:101620008B839C832D833E834F835887B9E0EB2EB9
:10163000F12CEC0EFD1ECE010196B7010E946D0D3E
:101640008E010F5E1F4FCE010596B8010E946D0DF1
:101650002985223008F47EC03989323010F4B8016F
:101660007CC08A859A8989278A87243011F02230A4
:1016700031F4231709F06EC065E770E06EC03430B6
:1016800039F41D861E861F86188A1C861B8604C098
:10169000323021F484E08987B7015FC02B853C8517
:1016A0008B899C89281B390B3C872B87ED84FE8412
:1016B0000F851889AD88BE88CF88D88CEA14FB04C2
:1016C0000C051D0540F4EE0CFF1C001F111F2150DE
:1016D00030403C872B8720E030E040E050E080E065
:1016E00090E0A0E0B0E460E070E0EA14FB040C05D8
:1016F0001D0540F0282B392B4A2B5B2BEA18FB08E1
:101700000C091D09B695A79597958795EE0CFF1CBA
:10171000001F111F6F5F7F4F6F31710531F7DA01C5
:10172000C9018F779070A070B07080349105A105C9
:10173000B10561F427FD0AC0E114F10401051105AA
:1017400029F0205C3F4F4F4F5F4F20782D873E8719
:101750004F87588BBE01675F7F4FCB010E94980C6B
:101760006896EAE00C94CA3EA8E1B0E0EAEBFBE040
:101770000C94B23E69837A838B839C832D833E8352
:101780004F83588789E0E82EF12CEC0EFD1ECE0128
:101790000196B7010E946D0D8E010F5E1F4FCE01A5
:1017A0000596B8010E946D0D8985823040F08989C7
:1017B000823028F0C701B8010E94E50D01C08FEF0B
:1017C0006896E6E00C94CE3EA8E1B0E0EAEEFBE0DD
:1017D0000C94B23E69837A838B839C832D833E83F2
:1017E0004F83588789E0E82EF12CEC0EFD1ECE01C8
:1017F0000196B7010E946D0D8E010F5E1F4FCE0145
:101800000596B8010E946D0D8985823040F0898966
:10181000823028F0C701B8010E94E50D01C08FEFAA
:101820006896E6E00C94CE3EA8E1B0E0EAE1FCE088
:101830000C94B23E69837A838B839C832D833E8391
:101840004F83588789E0E82EF12CEC0EFD1ECE0167
:101850000196B7010E946D0D8E010F5E1F4FCE01E4
:101860000596B8010E946D0D8985823040F0898906
:10187000823028F0C701B8010E94E50D01C081E067
:101880006896E6E00C94CE3EACE0B0E0EAE4FCE022
:101890000C94B63E69837A838B839C83CE01019638
:1018A000BE016B5F7F4F0E946D0D8D81823061F1B3
:1018B000823050F1843021F48E81882351F12EC082
:1018C0002F81388537FD20C06E812F3131051CF006
:1018D0006623F9F023C08EE190E0821B930B2985EB
:1018E0003A854B855C8504C0569547953795279575
:1018F0008A95D2F76623B1F05095409530952195A1
:101900003F4F4F4F5F4F0EC020E030E040E050E0CF
:1019100009C02FEF3FEF4FEF5FE704C020E030E05A
:1019200040E050E8B901CA012C96E2E00C94D23EA6
:10193000DF92EF92FF920F931F93FC01E480F580FA
:1019400006811781D1808081823048F480E090E068
:10195000A0E1B0E0E82AF92A0A2B1B2BA5C08430AD
:1019600009F49FC0823021F4EE24FF24870105C0D2
:10197000E114F1040105110519F4E0E0F0E096C06E
:10198000628173819FEF623879070CF05BC022E8B7
:101990003FEF261B370B2A3131052CF020E030E0D9
:1019A00040E050E02AC0B801A701022E04C076959D
:1019B0006795579547950A94D2F781E090E0A0E0AB
:1019C000B0E004C0880F991FAA1FBB1F2A95D2F749
:1019D0000197A109B1098E219F21A023B12300976E
:1019E000A105B10521F081E090E0A0E0B0E09A010E
:1019F000AB01282B392B4A2B5B2BDA01C9018F77DE
:101A00009070A070B07080349105A105B10539F4D3
:101A100027FF09C0205C3F4F4F4F5F4F04C0215C40
:101A20003F4F4F4F5F4FE0E0F0E02030A0E03A073B
:101A3000A0E04A07A0E45A0710F0E1E0F0E07901E5
:101A40008A0127C06038710564F5FB01E158FF4F3A
:101A5000D801C7018F779070A070B0708034910565
:101A6000A105B10539F4E7FE0DC080E490E0A0E0E7
:101A7000B0E004C08FE390E0A0E0B0E0E80EF91E13
:101A80000A1F1B1F17FF05C016950795F794E794CB
:101A9000319687E016950795F794E7948A95D1F7E4
:101AA00005C0EE24FF248701EFEFF0E06E2F67956D
:101AB00066276795902F9F77D794DD24D7948E2F34
:101AC0008695492F462B582F5D29B701CA011F91D2
:101AD0000F91FF90EF90DF900895FC01DB014081B2
:101AE00051812281622F6F7770E0221F2227221FEF
:101AF0009381892F880F822B282F30E0991F9927F7
:101B0000991F11969C93119721153105A9F541153F
:101B100051056105710511F482E037C082E89FEF3D
:101B200013969C938E9312979A01AB0167E0220F54
:101B3000331F441F551F6A95D1F783E08C930DC066
:101B4000220F331F441F551F12968D919C9113979E
:101B5000019713969C938E931297203080E038075C
:101B600080E0480780E4580758F314962D933D937E
:101B70004D935C93179708952F3F310579F44115E4
:101B800051056105710519F484E08C93089564FF93
:101B900003C081E08C9312C01C9210C02F573040BC
:101BA00013963C932E93129783E08C9387E0440F17
:101BB000551F661F771F8A95D1F7706414964D9351
:101BC0005D936D937C93179708951F93DC01FB0140
:101BD0009C91923008F447C08081823008F443C061
:101BE000943051F411961C91843099F58181682FBD
:101BF00070E0611B71093FC0843021F0923031F4F4
:101C00008230B9F18181882389F12DC011961C9110
:101C100011978230F1F081811817D9F412962D9125
:101C20003C911397828193818217930794F0281730
:101C30003907BCF014968D919D910D90BC91A02D0B
:101C40002481358146815781281739074A075B0768
:101C500018F4112341F00AC082179307A407B507AF
:101C600040F4112319F061E070E005C06FEF7FEFE1
:101C700002C060E070E0CB011F910895AF92BF9267
:101C8000CF92DF92EF92FF920F931F93DF93CF9348
:101C9000CDB7DEB7CA55D0400FB6F894DEBF0FBE41
:101CA000CDBF8A830B831C832D833E834F8358874C
:101CB00069877A87FC86EB8619828B818D879C8168
:101CC0009E878D818F879E81988B8F81898B988548
:101CD0009A8B89858B8B9A859C8BAD84BE84CF84AF
:101CE000D888E988FA880B891C892A2D3B2D4C2D30
:101CF0005D2D6E2D7F2D802F912F02E00E944401DB
:101D00002D8B3E8B4F8B588F698F7A8F8B8F9C8F4B
:101D10002D893E894F89588D698D7A8D8B8D9C8D4B
:101D200005E00E9444012D8F3E8F4F8F58A369A379
:101D30007AA38BA39CA38D8D9D89891B8DA381E0A4
:101D40008DA79DA18D8D891708F01DA69E8D8E896A
:101D5000981B9EA391E09EA78EA19E8D981708F0D8
:101D60001EA68EA19DA5891B8FA781E088AB9FA58C
:101D70008EA1891708F018AA9EA588A9982B9EA75E
:101D80009FA59EA38F8D9F89891B8FA381E089AB1F
:101D90009FA18F8D891708F019AA9FA18EA5981B66
:101DA0009AAB91E09BAB8AA99FA1981708F01BAA58
:101DB00089A99BA9892B89AB8AA98FA398A1888D12
:101DC000981B98A791E09CAB88A598A1981708F05C
:101DD0001CAA88A599A9891B8DAB81E08EAB9DA912
:101DE00088A5891708F01EAA9CA98EA9982B9CABE0
:101DF0009DA998A789A1998D891B89A781E08FAB9F
:101E000099A589A1891708F01FAA99A58CA9981BE3
:101E100098AF91E099AF88AD99A5981708F019AEE1
:101E20008FA999AD892B8FAB88AD89A79AA18A8D8F
:101E3000981B9AA791E09AAF8AA59AA1981708F0E3
:101E40001AAE8AA59FA9891B8BAF81E08CAF9BAD91
:101E50008AA5891708F01CAE9AAD8CAD982B9AAF65
:101E60009BAD9AA78BA19B8D891B8BA781E08DAF22
:101E70009BA58BA1891708F01DAE9BA58AAD981B69
:101E80009EAF91E09FAF8EAD9BA5981708F01FAE57
:101E90008DAD9FAD892B8DAF8EAD8BA79CA18C8D09
:101EA000981B9CA78CA59DAD891B8CA78DA18D8FA0
:101EB0009EA19E8F8FA18F8F98A598A389A589A396
:101EC0009AA59AA38BA58BA39CA59CA38D8D9D857C
:101ED000890F21968FAF219781E029968FAF29979F
:101EE00021969FAD21978D8D981718F029961FAEDA
:101EF00029979E8D8E85980F22969FAF229791E00D
:101F00002A969FAF2A9722968FAD22979E8D89178A
:101F100018F02A961FAE2A9729968FAD29972296F8
:101F20009FAD2297890F2B968FAF2B9781E02C9630
:101F30008FAF2C972B969FAD2B9722968FAD229724
:101F4000981718F02C961FAE2C972A969FAD2A97BB
:101F50002C968FAD2C97982B2A969FAF2A972B966D
:101F60009FAD2B9722969FAF22978F8D9F85890FCC
:101F700023968FAF239781E02D968FAF2D972396D1
:101F80009FAD23978F8D981718F02D961FAE2D9724
:101F90002A969FAD2A9723968FAD2397980F2E965A
:101FA0009FAF2E9791E02F969FAF2F972E968FADD4
:101FB0002E9723969FAD2397891718F02F961FAE63
:101FC0002F972D968FAD2D972F969FAD2F97892BFD
:101FD0002D968FAF2D972E968FAD2E9723968FAF80
:101FE000239798A18889980F24969FAF249791E012
:101FF00060969FAF609724968FAD249798A189171C
:1020000018F060961FAE60972D968FAD2D97249691
:102010009FAD2497890F61968FAF619781E062969B
:102020008FAF629761969FAD619724968FAD24978D
:10203000981718F062961FAE629760969FAD6097F2
:1020400062968FAD6297982B60969FAF609761966E
:102050009FAD619724969FAF249789A19989890F95
:1020600025968FAF259781E063968FAF639725966E
:102070009FAD259789A1981718F063961FAE6397B7
:1020800060969FAD609725968FAD2597980F6496C3
:102090009FAF649791E065969FAF659764968FAD0B
:1020A000649725969FAD2597891718F065961FAE02
:1020B000659763968FAD639765969FAD6597892BFE
:1020C00063968FAF639764968FAD649725968FAFB5
:1020D00025979AA18A89980F26969FAF269791E017
:1020E00066969FAF669726968FAD26979AA1891719
:1020F00018F066961FAE669763968FAD6397269627
:102100009FAD2697890F67968FAF679781E0689696
:102110008FAF689767969FAD679726968FAD269786
:10212000981718F068961FAE689766969FAD6697E9
:1021300068968FAD6897982B66969FAF669767965F
:102140009FAD679726969FAF26978BA19B89890F96
:1021500027968FAF279781E069968FAF699727966B
:102160009FAD27978BA1981718F069961FAE6997B6
:1021700066969FAD669727968FAD2797980F6A96BC
:102180009FAF6A9791E06B969FAF6B976A968FAD02
:102190006A9727969FAD2797891718F06B961FAE01
:1021A0006B9769968FAD69976B969FAD6B97892BEF
:1021B00069968FAF69976A968FAD6A9727968FAFAA
:1021C00027979CA18C89980F28969FAF289769968E
:1021D0008FAD699728969FAD2897890F28968FAF66
:1021E000289721968FAD21978D8F22969FAD2297AC
:1021F0009E8F23968FAD23978F8F24969FAD249724
:1022000098A325968FAD259789A326969FAD2697EF
:102210009AA327968FAD27978BA328969FAD2897D3
:102220009CA32D8D3E8D4F8D58A169A17AA18BA1C4
:102230009CA103E00E944401A22EB32EC42ED52EF1
:10224000E62EF72E082F192FAB82BC82CD82DE82BC
:10225000EF82F88609871A878A818823D9F40E9439
:102260002713AB80BC80CD80DE80EF80F8840985A9
:102270001A85EB85FC852A2D3B2D4C2D5D2D6E2D71
:102280007F2D802F912F8F010E9463130E943116A2
:1022900089831DC08A818230D1F40E94D622AB800E
:1022A000BC80CD80DE80EF80F88409851A85EB85BF
:1022B000FC852A2D3B2D4C2D5D2D6E2D7F2D802FE5
:1022C000912F8F010E9412230E94E8258983898122
:1022D000C65ADF4F0FB6F894DEBF0FBECDBFCF9109
:1022E000DF911F910F91FF90EF90DF90CF90BF9003
:1022F000AF900895AF92BF92CF92DF92EF92FF928C
:102300000F931F93DF93CF93CDB7DEB72C970FB604
:10231000F894DEBF0FBECDBF8A830B831C832D8351
:102320003E834F83588769877A87FC86EB861982BC
:102330008A818823D9F40E942713AB80BC80CD808A
:10234000DE80EF80F88409851A85EB85FC852A2DCF
:102350003B2D4C2D5D2D6E2D7F2D802F912F8F01CC
:102360000E9463130E94311689831DC08A818230C6
:10237000D1F40E94D622AB80BC80CD80DE80EF807D
:10238000F88409851A85EB85FC852A2D3B2D4C2D7B
:102390005D2D6E2D7F2D802F912F8F010E94122396
:1023A0000E94E825898389812C960FB6F894DEBFB8
:1023B0000FBECDBFCF91DF911F910F91FF90EF9096
:1023C000DF90CF90BF90AF900895DF93CF93CDB7BC
:1023D000DEB727970FB6F894DEBF0FBECDBF898357
:1023E0006A838981282F30E03F832E838E819F81ED
:1023F0008130910521F12E813F81223031052CF46D
:102400008E819F81009761F047C02E813F812230ED
:10241000310521F18E819F818330910571F13CC09E
:10242000A3E5B0E0E3E5F0E080818F7B8C93A3E54A
:10243000B0E0E3E5F0E08081877F8C932FC0A3E5D7
:10244000B0E0E3E5F0E0808180648C93A3E5B0E048
:10245000E3E5F0E08081877F8C9320C0A3E5B0E0C6
:10246000E3E5F0E080818F7B8C93A3E5B0E0E3E5CA
:10247000F0E0808188608C9311C0A3E5B0E0E3E5D3
:10248000F0E0808180648C93A3E5B0E0E3E5F0E0C8
:10249000808188608C9302C01D8261C0A3E5B0E09A
:1024A000E3E5F0E08081887F8C93A3E5B0E0E3E58D
:1024B000F0E090818A81892B8C938A81282F30E0EB
:1024C0003C832B838B819C818230910559F12B8138
:1024D0003C812330310554F48B819C810097B1F00D
:1024E0002B813C8121303105B1F037C08B819C813B
:1024F0008430910529F12B813C8124303105CCF0C9
:102500008B819C818530910511F127C01092980133
:102510001092970122C081E090E0909398018093FF
:1025200097011BC088E090E09093980180939701F9
:1025300014C080E490E090939801809397010DC0BF
:1025400080E091E0909398018093970106C080E02D
:1025500094E0909398018093970191E09D838D8101
:1025600027960FB6F894DEBF0FBECDBFCF91DF9197
:102570000895DF93CF9300D000D0CDB7DEB7898325
:102580008981282F30E03C832B838B819C81813093
:10259000910521F12B813C81223031052CF48B8176
:1025A0009C81009761F047C02B813C81223031052E
:1025B00021F18B819C818330910571F13CC0A3E5B1
:1025C000B0E0E3E5F0E080818F7E8C93A3E5B0E09E
:1025D000E3E5F0E080818F7D8C932FC0A3E5B0E030
:1025E000E3E5F0E0808180618C93A3E5B0E0E3E572
:1025F000F0E080818F7D8C9320C0A3E5B0E0E3E51F
:10260000F0E080818F7E8C93A3E5B0E0E3E5F0E01D
:10261000808180628C9311C0A3E5B0E0E3E5F0E037
:10262000808180618C93A3E5B0E0E3E5F0E08081F8
:1026300080628C9302C01A8202C091E09A838A81E0
:102640000F900F900F900F90CF91DF910895DF932F
:10265000CF93CDB7DEB7A9E5B0E0E9E5F0E0808142
:1026600081608C9381E0CF91DF910895DF93CF93C8
:10267000CDB7DEB7A9E5B0E0E9E5F0E080818E7F77
:102680008C9381E0CF91DF910895DF93CF93CDB705
:10269000DEB7A9E5B0E0E9E5F0E0808182608C93E7
:1026A00081E0CF91DF910895DF93CF93CDB7DEB76F
:1026B000A9E5B0E0E9E5F0E080818D7F8C9381E0D1
:1026C000CF91DF9108952F923F924F925F926F9238
:1026D0007F928F929F92AF92BF92CF92DF92EF92B2
:1026E000FF920F931F93DF93CF93CDB7DEB7609721
:1026F0000FB6F894DEBF0FBECDBF2E833F83488751
:1027000059876A877B878C879D871F870E871D82E5
:10271000E9E5F0E08081882F90E081709070882357
:1027200059F4E9E5F0E08081882F90E082709070A4
:1027300095958795009761F08E859F85009711F498
:10274000188A3CC28E859F85909385018093840171
:102750008E819F81892B9885892B9985892B9A85D4
:10276000892B9B85892B9C85892B9D85892B88238B
:1027700011F4188A23C28D85882369F58D858823F5
:1027800039F58C85882339F58C85882309F58B8567
:10279000882309F58B858823D9F48A858823D9F481
:1027A0008A858823A9F489858823A9F489858823C3
:1027B00079F48885882379F48885882349F48F8182
:1027C000823048F48F81813019F48E81882319F486
:1027D00082E08D83C8C08D85882381F58D8588230F
:1027E00009F05CC08C85882349F58C85882309F025
:1027F00055C08B85882311F58B85882309F04EC041
:102800008A858823D9F48A85882309F047C0898579
:102810008823A1F48985882309F040C0888588230E
:1028200069F48885882309F039C08F81823030F4BB
:102830008F81813099F58E81882381F18D85882360
:1028400069F58D85882339F58C85882339F58C8544
:10285000882309F58B85882309F58B858823D9F48E
:102860008A858823D9F48A858823A9F489858823D1
:10287000A9F48985882379F48885882379F4888563
:10288000882349F48F81893048F48F81883019F486
:102890008E81882319F483E08D8365C08D8588231C
:1028A00081F58D85882309F05CC08C85882349F5E6
:1028B0008C85882309F055C08B85882311F58B857D
:1028C000882309F04EC08A858823D9F48A85882315
:1028D00009F047C089858823A1F48985882309F0F8
:1028E00040C08885882369F48885882309F039C029
:1028F0008F81893030F48F81883099F58E818823DB
:1029000081F18D85882369F58D85882339F58C853E
:10291000882339F58C85882309F58B85882309F56B
:102920008B858823D9F48A858823D9F48A858823DE
:10293000A9F489858823A9F48985882379F4888571
:10294000882379F48885882349F48F81813248F47B
:102950008F81803219F48E81882319F484E08D836D
:1029600002C085E08D8380E06D810E94E511809139
:102970009701909198019C0140E050E080E092E145
:10298000AAE7B0E0BC01CD010E94843EDA01C90192
:1029900089839A83AB83BC8389819A81AB81BC8113
:1029A0005C016D01EE24FF2487012A2D3B2D4C2D67
:1029B0005D2D6E2D7F2D802F912FAE80BF80C8841E
:1029C000D984EA84FB840C851D850E944900222E4F
:1029D000332E442E552E662E772E882E992EA22C1D
:1029E000B32CC42CD52CE62CF72C082D192D2A2D10
:1029F0003B2D4C2D5D2D6E2D7F2D802F912FAA24E8
:102A0000BB246894B6F80F2EF2E4CF2EF02D0F2ED3
:102A1000FFE0DF2EF02DEE24FF2400E010E00E9406
:102A2000EF01A22EB32EC42ED52EE62EF72E082FA0
:102A3000192F2A2D3B2D4C2D5D2D6E2D7F2D802F96
:102A4000912F209386013093870140938801509302
:102A5000890160938A0170938B0180938C0190931C
:102A60008D0189819A81AB81BC815C016D01EE246D
:102A7000FF2487012A2D3B2D4C2D5D2D6E2D7F2DA2
:102A8000802F912FAE80BF80C884D984EA84FB84D4
:102A90000C851D850E944900222E332E442E552E72
:102AA000662E772E882E992EA22CB32CC42CD52CD2
:102AB000E62CF72C082D192D2A2D3B2D4C2D5D2DA4
:102AC0006E2D7F2D802F912FAA246894A6F80F2EAB
:102AD000F2E4BF2EF02D0F2EFFE0CF2EF02DDD24DF
:102AE000EE24FF2400E010E00E94EF01A22EB32E9E
:102AF000C42ED52EE62EF72E082F192F2A2D3B2D6A
:102B00004C2D5D2D6E2D7F2D802F912F922EA0901C
:102B10008601B0908701C0908801D0908901E09033
:102B20008A01F0908B0100918C0110918D012A2D6A
:102B30003B2D4C2D5D2D6E2D7F2D802F912F08E08C
:102B40000E944401A22EB32EC42ED52EE62EF72EBF
:102B5000082F192F2A2D3B2D4C2D5D2D6E2D7F2DED
:102B6000802F912F822F992D981B892F809396016A
:102B7000209186013091870140918801509189010F
:102B800060918A0170918B0180918C0190918D01EF
:102B9000E22FE32BE42BE52BE62BE72BE82BE92BAD
:102BA000EE2339F4E2E5F0E080919601819580838F
:102BB00003C0E2E5F0E0108281E0888B88896096AE
:102BC0000FB6F894DEBF0FBECDBFCF91DF911F913E
:102BD0000F91FF90EF90DF90CF90BF90AF909F90BC
:102BE0008F907F906F905F904F903F902F900895BF
:102BF000DF93CF93CDB7DEB70E9436130E945413F4
:102C000080E060E00E94E511A8E5B0E0E8E5F0E0D2
:102C1000808181608C9310928601109287011092BE
:102C200088011092890110928A0110928B011092F2
:102C30008C0110928D011092960110928E011092CB
:102C40008F011092900110929101109292011092B6
:102C50009301109294011092950181E0CF91DF9140
:102C60000895DF93CF93CDB7DEB7C757D0400FB6E7
:102C7000F894DEBF0FBECDBF80918E018AA79091E0
:102C80008F019BA7809190018CA7909191019DA7A6
:102C9000809192018EA7909193019FA780919401BA
:102CA00088AB9091950199AB809186018AA3909110
:102CB00087019BA3809188018CA3909189019DA39A
:102CC00080918A018EA390918B019FA380918C01AA
:102CD00088A790918D0199A789A599A9981708F4BB
:102CE00040C089A599A9891709F0DFC188A598A9CD
:102CF0009817B8F188A598A9891709F0D6C18FA1AE
:102D00009FA5981770F18FA19FA5891709F0CDC1D4
:102D10008EA19EA5981728F18EA19EA5891709F06E
:102D2000C4C18DA19DA59817E0F08DA19DA589171F
:102D300009F0BBC18CA19CA5981798F08CA19CA50B
:102D4000891709F0B2C18BA19BA5981750F08BA1F0
:102D50009BA5891709F0A9C18AA19AA5981708F01F
:102D6000A4C1E8E5F0E08081882F90E08170907048
:102D7000882309F404C4A8E5B0E0E8E5F0E0808128
:102D800081608C9380918E018A8F90918F019B8FAF
:102D9000809190018C8F909191019D8F80919201F3
:102DA0008E8F909193019F8F8091940188A3909131
:102DB000950199A381E08AAB1BAA1CAA1DAA1EAA91
:102DC0001FAA18AE19AE9A8D8AA9980F9AAF91E0F2
:102DD00023969FAF23978AAD9A8D891718F0239673
:102DE0001FAE23978B8D9BA9890F8BAF81E0249613
:102DF0008FAF24979BAD8B8D981718F024961FAE3C
:102E0000249723969FAD23978BAD980F25969FAF60
:102E1000259791E026969FAF269725968FAD25970B
:102E20009BAD891718F026961FAE269724968FAD76
:102E3000249726969FAD2697892B24968FAF2497AB
:102E400025968FAD25978BAF9C8D8CA9980F9CAF45
:102E500091E027969FAF27978CAD9C8D891718F02E
:102E600027961FAE279724968FAD24979CAD890F88
:102E700028968FAF289781E029968FAF29972896BB
:102E80009FAD28978CAD981718F029961FAE2997FB
:102E900027969FAD279729968FAD2997982B279630
:102EA0009FAF279728969FAD28979CAF8D8D9DA9A2
:102EB000890F8DAF81E02A968FAF2A979DAD8D8DBA
:102EC000981718F02A961FAE2A9727969FAD279736
:102ED0008DAD980F2B969FAF2B9791E02C969FAFBF
:102EE0002C972B968FAD2B979DAD891718F02C96AC
:102EF0001FAE2C972A968FAD2A972C969FAD2C97B4
:102F0000892B2A968FAF2A972B968FAD2B978DAF53
:102F10009E8D8EA9980F9EAF91E02D969FAF2D9715
:102F20008EAD9E8D891718F02D961FAE2D972A967F
:102F30008FAD2A979EAD890F2E968FAF2E9781E089
:102F40002F968FAF2F972E969FAD2E978EAD9817F9
:102F500018F02F961FAE2F972D969FAD2D972F9679
:102F60008FAD2F97982B2D969FAF2D972E969FADB7
:102F70002E979EAF8F8D9FA9890F8FAF81E06096AE
:102F80008FAF60979FAD8F8D981718F060961FAE2A
:102F900060972D969FAD2D978FAD980F61969FAF3F
:102FA000619791E062969FAF629761968FAD61974E
:102FB0009FAD891718F062961FAE629760968FAD2D
:102FC000609762969FAD6297892B60968FAF6097EE
:102FD00061968FAD61978FAF98A188AD980F2196BC
:102FE0009FAF219791E063969FAF639721968FAD36
:102FF000219798A1891718F063961FAE6397609682
:103000008FAD609721969FAD2197890F64968FAF02
:10301000649781E065968FAF659764969FAD6497DE
:1030200021968FAD2197981718F065961FAE65977A
:1030300063969FAD639765968FAD6597982B639662
:103040009FAF639764969FAD649721969FAF21973A
:1030500089A199AD890F22968FAF229763968FAD84
:10306000639722969FAD2297890F22968FAF229762
:103070002AAD3BAD4CAD5DAD6EAD7FAD21968FAD54
:10308000219722969FAD229720938E0130938F0136
:10309000409390015093910160939201709393013A
:1030A00080939401909395016AC280918E018A8BDE
:1030B00090918F019B8B809190018C8B90919101CD
:1030C0009D8B809192018E8B909193019F8B80912B
:1030D0009401888F90919501998F809186018A87BC
:1030E000909187019B87809188018C8790918901BD
:1030F0009D8780918A018E8790918B019F87809117
:103100008C01888B90918D01998B8A899A8589177A
:1031100009F025C28B899B85891709F020C28C890B
:103120009C85891709F01BC28D899D85891709F037
:1031300016C28E899E85891709F011C28F899F85D5
:10314000891709F00CC2888D9889891709F007C280
:10315000898D9989891709F002C2E2E5F0E0809132
:10316000960180958083A8E5B0E0E8E5F0E08081F5
:1031700081608C9380918E018A8390918F019B83D3
:10318000809190018C83909191019D838091920117
:103190008E83909193019F83809194018887909171
:1031A0009501998781E066968FAF669767961FAE07
:1031B000679768961FAE689769961FAE69976A967B
:1031C0001FAE6A976B961FAE6B976C961FAE6C978F
:1031D0006D961FAE6D979A8166968FAD6697980F24
:1031E0006E969FAF6E9791E0A6969FAFA6976E964C
:1031F0008FAD6E979A81891718F0A6961FAEA69785
:103200008B8167969FAD6797890F6F968FAF6F978A
:1032100081E0A7968FAFA7976F969FAD6F978B8131
:10322000981718F0A7961FAEA797A6969FADA697DA
:103230006F968FAD6F97980FA8969FAFA89791E064
:10324000A9969FAFA997A8968FADA8976F969FADA7
:103250006F97891718F0A9961FAEA997A7968FADFB
:10326000A797A9969FADA997892BA7968FAFA797E8
:10327000A8968FADA8976F968FAF6F979C81689631
:103280008FAD6897980FA0969FAFA09791E0AA96F0
:103290009FAFAA97A0968FADA0979C81891718F031
:1032A000AA961FAEAA97A7968FADA797A0969FAD97
:1032B000A097890FAB968FAFAB9781E0AC968FAF9D
:1032C000AC97AB969FADAB97A0968FADA097981794
:1032D00018F0AC961FAEAC97AA969FADAA97AC9685
:1032E0008FADAC97982BAA969FAFAA97AB969FAD40
:1032F000AB97A0969FAFA0978D8169969FAD699778
:10330000890FA1968FAFA19781E0AD968FAFAD9752
:10331000A1969FADA1978D81981718F0AD961FAE1D
:10332000AD97AA969FADAA97A1968FADA197980F3A
:10333000AE969FAFAE9791E0AF969FAFAF97AE9628
:103340008FADAE97A1969FADA197891718F0AF9654
:103350001FAEAF97AD968FADAD97AF969FADAF97C0
:10336000892BAD968FAFAD97AE968FADAE97A196E8
:103370008FAFA1979E816A968FAD6A97980FA2969C
:103380009FAFA29791E0E0969FAFE097A2968FAD96
:10339000A2979E81891718F0E0961FAEE097AD9630
:1033A0008FADAD97A2969FADA297890FE1968FAF93
:1033B000E19781E0E2968FAFE297E1969FADE197CA
:1033C000A2968FADA297981718F0E2961FAEE297DB
:1033D000E0969FADE097E2968FADE297982BE0964E
:1033E0009FAFE097E1969FADE197A2969FAFA2971E
:1033F0008F816B969FAD6B97890FA3968FAFA39725
:1034000081E0E3968FAFE397A3969FADA3978F815B
:10341000981718F0E3961FAEE397E0969FADE097FC
:10342000A3968FADA397980FE4969FAFE49791E092
:10343000E5969FAFE597E4968FADE497A3969FAD91
:10344000A397891718F0E5961FAEE597E3968FAD21
:10345000E397E5969FADE597892BE3968FAFE397CA
:10346000E4968FADE497A3968FAFA39798856C965B
:103470008FAD6C97980FA4969FAFA49791E0E696B6
:103480009FAFE697A4968FADA4979885891718F0FB
:10349000E6961FAEE697E3968FADE397A4969FADB1
:1034A000A497890FE7968FAFE79781E0E8968FAFF3
:1034B000E897E7969FADE797A4968FADA4979817E6
:1034C00018F0E8961FAEE897E6969FADE697E89667
:1034D0008FADE897982BE6969FAFE697E7969FAD5E
:1034E000E797A4969FAFA49789856D969FAD6D973A
:1034F000890FA5968FAFA597E6968FADE697A5960F
:103500009FADA597890FA5968FAFA5976E962FAD06
:103510006E976F963FAD6F97A0964FADA097A1960F
:103520005FADA197A2966FADA297A3967FADA3972B
:10353000A4968FADA497A5969FADA59720938E01D5
:1035400030938F01409390015093910160939201C9
:1035500070939301809394019093950110C0809192
:10356000840190918501009729F0E0918401F09108
:10357000850109950E94F81581E0898301C01982AF
:103580008981C958DF4F0FB6F894DEBF0FBECDBF9B
:10359000CF91DF9108951F920F920FB60F921124D1
:1035A0002F933F934F935F936F937F938F939F934B
:1035B000AF93BF93EF93FF93DF93CF93CDB7DEB776
:1035C000C657D040DEBFCDBF80918E0189A79091B4
:1035D0008F019AA7809190018BA7909191019CA750
:1035E000809192018DA7909193019EA78091940163
:1035F0008FA79091950198AB8091860189A39091B6
:1036000087019AA3809188018BA3909189019CA343
:1036100080918A018DA390918B019EA380918C0152
:103620008FA390918D0198A788A598A9981708F461
:1036300040C088A598A9891709F0C2C18FA19FA58C
:103640009817B8F18FA19FA5891709F0B9C18EA16C
:103650009EA5981770F18EA19EA5891709F0B0C19B
:103660008DA19DA5981728F18DA19DA5891709F019
:10367000A7C18CA19CA59817E0F08CA19CA58917E7
:1036800009F09EC18BA19BA5981798F08BA19BA5D3
:10369000891709F095C18AA19AA5981750F08AA1B7
:1036A0009AA5891709F08CC189A199A5981708F0E6
:1036B00087C180918E01898F90918F019A8F80911F
:1036C00090018B8F909191019C8F809192018D8FB1
:1036D000909193019E8F809194018F8F909195018D
:1036E00098A381E089AB1AAA1BAA1CAA1DAA1EAA2C
:1036F0001FAA18AE998D89A9980F99AF91E02296CB
:103700009FAF229789AD998D891718F022961FAE29
:1037100022978A8D9AA9890F8AAF81E023968FAF6D
:1037200023979AAD8A8D981718F023961FAE23978A
:1037300022969FAD22978AAD980F24969FAF24972B
:1037400091E025969FAF259724968FAD24979AAD4B
:10375000891718F025961FAE259723968FAD2397CE
:1037600025969FAD2597892B23968FAF2397249677
:103770008FAD24978AAF9B8D8BA9980F9BAF91E05B
:1037800026969FAF26978BAD9B8D891718F02696AE
:103790001FAE269723968FAD23979BAD890F279653
:1037A0008FAF279781E028968FAF289727969FADF8
:1037B00027978BAD981718F028961FAE2897269656
:1037C0009FAD269728968FAD2897982B26969FAF6A
:1037D000269727969FAD27979BAF8C8D9CA9890F25
:1037E0008CAF81E029968FAF29979CAD8C8D98176F
:1037F00018F029961FAE299726969FAD26978CAD77
:10380000980F2A969FAF2A9791E02B969FAF2B9700
:103810002A968FAD2A979CAD891718F02B961FAE6C
:103820002B9729968FAD29972B969FAD2B97892B98
:1038300029968FAF29972A968FAD2A978CAF9D8DA9
:103840008DA9980F9DAF91E02C969FAF2C978DADD1
:103850009D8D891718F02C961FAE2C9729968FAD49
:1038600029979DAD890F2D968FAF2D9781E02E96CC
:103870008FAF2E972D969FAD2D978DAD981718F081
:103880002E961FAE2E972C969FAD2C972E968FAD11
:103890002E97982B2C969FAF2C972D969FAD2D97FA
:1038A0009DAF8E8D9EA9890F8EAF81E02F968FAF31
:1038B0002F979EAD8E8D981718F02F961FAE2F97CD
:1038C0002C969FAD2C978EAD980F60969FAF60970A
:1038D00091E061969FAF619760968FAD60979EADC6
:1038E000891718F061961FAE61972F968FAD2F97AD
:1038F00061969FAD6197892B2F968FAF2F9760961A
:103900008FAD60978EAF9F8D8FA9980F9FAF91E07D
:1039100062969FAF62978FAD9F8D891718F0629660
:103920001FAE62972F968FAD2F979FAD890F63962D
:103930008FAF639781E064968FAF649763969FAD76
:1039400063978FAD981718F064961FAE64976296D0
:103950009FAD629764968FAD6497982B62969FAFE8
:10396000629763969FAD63979FAF88A198AD890FCB
:1039700021968FAF219762968FAD629721969FAD6A
:103980002197890F21968FAF219729AD3AAD4BAD85
:103990005CAD6DAD7EAD8FAD21969FAD219720932F
:1039A0008E0130938F014093900150939101609369
:1039B00092017093930180939401909395016EC24C
:1039C00080918E01898B90918F019A8B80919001CB
:1039D0008B8B909191019C8B809192018D8B90911A
:1039E00093019E8B809194018F8B90919501988F7C
:1039F000809186018987909187019A8780918801BB
:103A00008B87909189019C8780918A018D87909105
:103A10008B019E8780918C018F8790918D01988B6F
:103A200089899985891709F01EC28A899A8589171B
:103A300009F019C28B899B85891709F014C28C89FA
:103A40009C85891709F00FC28D899D85891709F01A
:103A50000AC28E899E85891709F005C28F899F85C4
:103A6000891709F000C2888D9889891709F0FBC170
:103A7000E2E5F0E0809196018095808380918E014F
:103A8000898390918F019A83809190018B8390918B
:103A900091019C83809192018D83909193019E83EB
:103AA000809194018F8390919501988781E065962C
:103AB0008FAF659766961FAE669767961FAE67973E
:103AC00068961FAE689769961FAE69976A961FAE93
:103AD0006A976B961FAE6B976C961FAE6C97998129
:103AE00065968FAD6597980F6D969FAF6D9791E036
:103AF000A5969FAFA5976D968FAD6D979981891704
:103B000018F0A5961FAEA5978A8166969FAD669719
:103B1000890F6E968FAF6E9781E0A6968FAFA697AE
:103B20006E969FAD6E978A81981718F0A6961FAE75
:103B3000A697A5969FADA5976E968FAD6E97980F99
:103B4000A7969FAFA79791E0A8969FAFA897A79633
:103B50008FADA7976E969FAD6E97891718F0A896B0
:103B60001FAEA897A6968FADA697A8969FADA897CB
:103B7000892BA6968FAFA697A7968FADA7976E961F
:103B80008FAF6E979B8167968FAD6797980F6F96F3
:103B90009FAF6F9791E0A9969FAFA9976F968FAD52
:103BA0006F979B81891718F0A9961FAEA997A696C3
:103BB0008FADA6976F969FAD6F97890FAA968FAF1F
:103BC000AA9781E0AB968FAFAB97AA969FADAA97C5
:103BD0006F968FAD6F97981718F0AB961FAEAB9797
:103BE000A9969FADA997AB968FADAB97982BA99649
:103BF0009FAFA997AA969FADAA976F969FAF6F9711
:103C00008C8168969FAD6897890FA0968FAFA0971B
:103C100081E0AC968FAFAC97A0969FADA0978C81BA
:103C2000981718F0AC961FAEAC97A9969FADA997C0
:103C3000A0968FADA097980FAD969FAFAD9791E0EE
:103C4000AE969FAFAE97AD968FADAD97A0969FAD58
:103C5000A097891718F0AE961FAEAE97AC968FADB1
:103C6000AC97AE969FADAE97892BAC968FAFAC97C5
:103C7000AD968FADAD97A0968FAFA0979D816996B9
:103C80008FAD6997980FA1969FAFA19791E0AF96DE
:103C90009FAFAF97A1968FADA1979D81891718F01F
:103CA000AF961FAEAF97AC968FADAC97A1969FAD78
:103CB000A197890FE0968FAFE09781E0E1968FAFF3
:103CC000E197E0969FADE097A1968FADA1979817E9
:103CD00018F0E1961FAEE197AF969FADAF97E196D2
:103CE0008FADE197982BAF969FAFAF97E0969FADC2
:103CF000E097A1969FAFA1978E816A969FAD6A9734
:103D0000890FA2968FAFA29781E0E2968FAFE297DC
:103D1000A2969FADA2978E81981718F0E2961FAEDB
:103D2000E297AF969FADAF97A2968FADA297980FEF
:103D3000E3969FAFE39791E0E4969FAFE497E39615
:103D40008FADE397A2969FADA297891718F0E496DE
:103D50001FAEE497E2968FADE297E4969FADE497AD
:103D6000892BE2968FAFE297E3968FADE397A29609
:103D70008FAFA2979F816B968FAD6B97980FA3968D
:103D80009FAFA39791E0E5969FAFE597A3968FAD80
:103D9000A3979F81891718F0E5961FAEE597E296E5
:103DA0008FADE297A3969FADA397890FE6968FAF4D
:103DB000E69781E0E7968FAFE797E6969FADE697A7
:103DC000A3968FADA397981718F0E7961FAEE797C5
:103DD000E5969FADE597E7968FADE797982BE5962B
:103DE0009FAFE597E6969FADE697A3969FAFA39703
:103DF00088856C969FAD6C97890FA4968FAFA4971A
:103E0000E5968FADE597A4969FADA497890FA496EC
:103E10008FAFA4976D962FAD6D976E963FAD6E9751
:103E20006F964FAD6F97A0965FADA097A1966FADBF
:103E3000A197A2967FADA297A3968FADA397A496C4
:103E40009FADA49720938E0130938F0140939001F2
:103E50005093910160939201709393018093940128
:103E6000909395011BC010928E0110928F011092B9
:103E70009001109291011092920110929301109270
:103E80009401109295018091840190918501009791
:103E900029F0E0918401F09185010995CA58DF4F1E
:103EA000DEBFCDBFCF91DF91FF91EF91BF91AF9179
:103EB0009F918F917F916F915F914F913F912F9142
:103EC0000F900FBE0F901F901895DF93CF9300D0E7
:103ED00000D00F92CDB7DEB789836A838981282FFE
:103EE00030E03D832C838C819D8199230CF444C068
:103EF0002C813D812D30310534F08C819D810E97D0
:103F000082309105C8F5AFE4B0E0EFE4F0E08081E5
:103F10008C7F8C93AFE4B0E0EFE4F0E08081982FE9
:103F200089818370892B8C93AEE4B0E0EEE4F0E0FD
:103F30008081877E8C93AEE4B0E0EEE4F0E0808197
:103F4000282F8981882F90E08C709070880F991F9E
:103F5000822B8C93AEE4B0E0EEE4F0E08081887FC9
:103F60008C93AEE4B0E0EEE4F0E090818A81892B9E
:103F70008C9331E03B8301C01B828B810F900F90AB
:103F80000F900F900F90CF91DF910895DF93CF9313
:103F900000D000D0CDB7DEB789838981282F30E0EB
:103FA0003C832B838B819C818130910521F12B8176
:103FB0003C81223031052CF48B819C81009761F08B
:103FC00047C02B813C812230310521F18B819C81BE
:103FD0008330910571F13CC0AFE4B0E0EFE4F0E074
:103FE00080818F7B8C93AFE4B0E0EFE4F0E08081E0
:103FF0008F778C932FC0AFE4B0E0EFE4F0E08081E6
:1040000080648C93AFE4B0E0EFE4F0E080818F77E0
:104010008C9320C0AFE4B0E0EFE4F0E080818F7BD0
:104020008C93AFE4B0E0EFE4F0E0808180688C93A3
:1040300011C0AFE4B0E0EFE4F0E0808180648C93E5
:10404000AFE4B0E0EFE4F0E0808180688C9302C0E0
:104050001A8202C091E09A838A810F900F900F908C
:104060000F90CF91DF910895DF93CF9300D000D0D0
:10407000CDB7DEB789838981282F30E03C832B833D
:104080008B819C818130910521F12B813C812230F3
:1040900031052CF48B819C81009761F047C02B8106
:1040A0003C812230310521F18B819C818330910547
:1040B00071F13CC0AFE4B0E0EFE4F0E080818F7ECE
:1040C0008C93AFE4B0E0EFE4F0E080818F7D8C93DF
:1040D0002FC0AFE4B0E0EFE4F0E0808180618C932A
:1040E000AFE4B0E0EFE4F0E080818F7D8C9320C0FE
:1040F000AFE4B0E0EFE4F0E080818F7E8C93AFE43A
:10410000B0E0EFE4F0E0808180628C9311C0AFE416
:10411000B0E0EFE4F0E0808180618C93AFE4B0E048
:10412000EFE4F0E0808180628C9302C01A8202C0CA
:1041300091E09A838A810F900F900F900F90CF910A
:10414000DF910895DF93CF93CDB7DEB7A9E5B0E057
:10415000E9E5F0E0808184608C9381E0CF91DF918C
:104160000895DF93CF93CDB7DEB7A9E5B0E0E9E5D9
:10417000F0E080818B7F8C9381E0CF91DF91089577
:10418000DF93CF93CDB7DEB7A9E5B0E0E9E5F0E086
:10419000808180618C9381E0CF91DF910895DF93DE
:1041A000CF93CDB7DEB7A9E5B0E0E9E5F0E08081D7
:1041B0008F7E8C9381E0CF91DF910895DF93CF9331
:1041C000CDB7DEB7A9E5B0E0E9E5F0E08081886031
:1041D0008C9381E0CF91DF910895DF93CF93CDB79A
:1041E000DEB7A9E5B0E0E9E5F0E08081877F8C9358
:1041F00081E0CF91DF910895DF93CF9300D00F92AC
:10420000CDB7DEB79A83898389819A81009711F4AB
:104210001B8208C089819A8190939A0180939901A9
:1042200081E08B838B810F900F900F90CF91DF9166
:104230000895DF93CF9300D00F92CDB7DEB79A8366
:10424000898389819A81009711F41B8210C0809123
:104250009B0190919C01A0919D01B0919E01E981EB
:10426000FA8180839183A283B38381E08B838B81E6
:104270000F900F900F90CF91DF910895DF93CF9320
:10428000CDB7DEB710929B0110929C0110929D0158
:1042900010929E0181E0CF91DF9108951F920F92BD
:1042A0000FB60F9211242F933F934F935F936F9309
:1042B0007F938F939F93AF93BF93EF93FF93DF937E
:1042C000CF93CDB7DEB780919B0190919C01A091D7
:1042D0009D01B0919E010196A11DB11D80939B018E
:1042E00090939C01A0939D01B0939E0180919901B0
:1042F00090919A01009729F0E0919901F0919A012B
:104300000995CF91DF91FF91EF91BF91AF919F916F
:104310008F917F916F915F914F913F912F910F906E
:104320000FBE0F901F901895DF93CF93CDB7DEB7D8
:1043300027970FB6F894DEBF0FBECDBF89836A837F
:104340008981282F30E03F832E838E819F818130A9
:10435000910521F12E813F81223031052CF48E818F
:104360009F81009761F047C02E813F812230310547
:1043700021F18E819F818330910571F13CC0A5E4CC
:10438000B0E0E5E4F0E080818F7B8C93A5E4B0E0C1
:10439000E5E4F0E08081877F8C932FC0A5E4B0E056
:1043A000E5E4F0E0808180648C93A5E4B0E0E5E48E
:1043B000F0E08081877F8C9320C0A5E4B0E0E5E445
:1043C000F0E080818F7B8C93A5E4B0E0E5E4F0E041
:1043D000808188608C9311C0A5E4B0E0E5E4F0E052
:1043E000808180648C93A5E4B0E0E5E4F0E0808116
:1043F00088608C9302C01D8261C0A5E4B0E0E5E452
:10440000F0E08081887F8C93A5E4B0E0E5E4F0E003
:1044100090818A81892B8C938A81282F30E03C837C
:104420002B838B819C818230910559F12B813C81BA
:104430002330310554F48B819C810097B1F02B819E
:104440003C8121303105B1F037C08B819C818630B1
:10445000910529F12B813C812730310539F18B8180
:104460009C8184309105A1F027C01092B301109275
:10447000B20122C081E090E09093B3018093B20139
:104480001BC088E090E09093B3018093B20114C008
:1044900080E490E09093B3018093B2010DC080E07E
:1044A00091E09093B3018093B20106C080E094E064
:1044B0009093B3018093B20191E09D838D81279603
:1044C0000FB6F894DEBF0FBECDBFCF91DF91089538
:1044D000DF93CF9300D000D0CDB7DEB78983898139
:1044E000282F30E03C832B838B819C818130910588
:1044F00021F12B813C81223031052CF48B819C8170
:10450000009761F047C02B813C812230310521F1B9
:104510008B819C818330910571F13CC0A5E4B0E0B2
:10452000E5E4F0E080818F7E8C93A5E4B0E0E5E4E3
:10453000F0E080818F7D8C932FC0A5E4B0E0E5E4AE
:10454000F0E0808180618C93A5E4B0E0E5E4F0E0E8
:1045500080818F7D8C9320C0A5E4B0E0E5E4F0E09D
:1045600080818F7E8C93A5E4B0E0E5E4F0E080816B
:1045700080628C9311C0A5E4B0E0E5E4F0E08081B6
:1045800080618C93A5E4B0E0E5E4F0E08081806296
:104590008C9302C01A8202C091E09A838A810F90A4
:1045A0000F900F900F90CF91DF910895DF93CF93ED
:1045B000CDB7DEB7A9E5B0E0E9E5F0E08081806441
:1045C0008C9381E0CF91DF910895DF93CF93CDB7A6
:1045D000DEB7A9E5B0E0E9E5F0E080818F7B8C9360
:1045E00081E0CF91DF910895DF93CF93CDB7DEB710
:1045F000A9E5B0E0E9E5F0E0808180688C9381E096
:10460000CF91DF910895DF93CF93CDB7DEB7A9E5C2
:10461000B0E0E9E5F0E080818F778C9381E0CF9185
:10462000DF9108952F923F924F925F926F927F9207
:104630008F929F92AF92BF92CF92DF92EF92FF92B2
:104640000F931F93DF93CF93CDB7DEB760970FB66D
:10465000F894DEBF0FBECDBF2E833F8348875987B6
:104660006A877B878C879D871F870E871D82E9E578
:10467000F0E08081882F90E080749070082E892F60
:10468000000C881F990B000C881F991F009759F484
:10469000E9E5F0E08081881F8827881F882F90E057
:1046A0009070009761F08E859F85009711F4188AAD
:1046B0003CC28E859F859093A00180939F018E813F
:1046C0009F81892B9885892B9985892B9A85892BA0
:1046D0009B85892B9C85892B9D85892B882311F4AB
:1046E000188A23C28D85882369F58D85882339F53D
:1046F0008C85882339F58C85882309F58B8588235B
:1047000009F58B858823D9F48A858823D9F48A858D
:104710008823A9F489858823A9F48985882379F4D5
:104720008885882379F48885882349F48F818230AD
:1047300048F48F81813019F48E81882319F482E046
:104740008D83C8C08D85882381F58D85882309F0E8
:104750005CC08C85882349F58C85882309F055C079
:104760008B85882311F58B85882309F04EC08A85B7
:104770008823D9F48A85882309F047C0898588234E
:10478000A1F48985882309F040C08885882369F4CD
:104790008885882309F039C08F81823030F48F8179
:1047A000813099F58E81882381F18D85882369F583
:1047B0008D85882339F58C85882339F58C85882368
:1047C00009F58B85882309F58B858823D9F48A859B
:1047D0008823D9F48A858823A9F489858823A9F4B4
:1047E0008985882379F48885882379F488858823C6
:1047F00049F48F81893048F48F81883019F48E8193
:10480000882319F484E08D8365C08D85882381F524
:104810008D85882309F05CC08C85882349F58C85BB
:10482000882309F055C08B85882311F58B85882353
:1048300009F04EC08A858823D9F48A85882309F037
:1048400047C089858823A1F48985882309F040C061
:104850008885882369F48885882309F039C08F8189
:10486000893030F48F81883099F58E81882381F1E9
:104870008D85882369F58D85882339F58C85882376
:1048800039F58C85882309F58B85882309F58B8577
:104890008823D9F48A858823D9F48A858823A9F4C2
:1048A00089858823A9F48985882379F488858823D4
:1048B00079F48885882349F48F81813248F48F8187
:1048C000803219F48E81882319F486E08D8302C02A
:1048D00087E08D8380E06D810E9494218091B201F8
:1048E0009091B3019C0140E050E080E092E1AAE7A2
:1048F000B0E0BC01CD010E94843EDA01C901898388
:104900009A83AB83BC8389819A81AB81BC815C0132
:104910006D01EE24FF2487012A2D3B2D4C2D5D2DAA
:104920006E2D7F2D802F912FAE80BF80C884D984BB
:10493000EA84FB840C851D850E944900222E332EBB
:10494000442E552E662E772E882E992EA22CB32C0F
:10495000C42CD52CE62CF72C082D192D2A2D3B2DF7
:104960004C2D5D2D6E2D7F2D802F912FAA24BB24E1
:104970006894B6F80F2EF2E4CF2EF02D0F2EFFE044
:10498000DF2EF02DEE24FF2400E010E00E94EF0166
:10499000A22EB32EC42ED52EE62EF72E082F192FB9
:1049A0002A2D3B2D4C2D5D2D6E2D7F2D802F912F8F
:1049B0002093A1013093A2014093A3015093A4013D
:1049C0006093A5017093A6018093A7019093A8011D
:1049D00089819A81AB81BC815C016D01EE24FF2449
:1049E00087012A2D3B2D4C2D5D2D6E2D7F2D802F87
:1049F000912FAE80BF80C884D984EA84FB840C8563
:104A00001D850E944900222E332E442E552E662EDF
:104A1000772E882E992EA22CB32CC42CD52CE62CC4
:104A2000F72C082D192D2A2D3B2D4C2D5D2D6E2D8B
:104A30007F2D802F912FAA246894A6F80F2EF2E4E0
:104A4000BF2EF02D0F2EFFE0CF2EF02DDD24EE2413
:104A5000FF2400E010E00E94EF01A22EB32EC42E2E
:104A6000D52EE62EF72E082F192F2A2D3B2D4C2D53
:104A70005D2D6E2D7F2D802F912F922EA090A10164
:104A8000B090A201C090A301D090A401E090A50134
:104A9000F090A6010091A7011091A8012A2D3B2DAD
:104AA0004C2D5D2D6E2D7F2D802F912F08E00E94C3
:104AB0004401A22EB32EC42ED52EE62EF72E082F9B
:104AC000192F2A2D3B2D4C2D5D2D6E2D7F2D802FE6
:104AD000912F822F992D981B892F8093B1012091BE
:104AE000A1013091A2014091A3015091A4016091D4
:104AF000A5017091A6018091A7019091A801E22FD4
:104B0000E32BE42BE52BE62BE72BE82BE92BEE231D
:104B100039F4E4E4F0E08091B1018195808303C031
:104B2000E4E4F0E0108281E0888B888960960FB61B
:104B3000F894DEBF0FBECDBFCF91DF911F910F91D3
:104B4000FF90EF90DF90CF90BF90AF909F908F90AD
:104B50007F906F905F904F903F902F900895DF93DC
:104B6000CF93CDB7DEB70E94E5220E94032380E0F9
:104B700060E00E949421A8E5B0E0E8E5F0E08081E3
:104B800080648C931092A1011092A2011092A30153
:104B90001092A4011092A5011092A6011092A701F3
:104BA0001092A8011092B1011092A9011092AA01CD
:104BB0001092AB011092AC011092AD011092AE01B7
:104BC0001092AF011092B00181E0CF91DF91089572
:104BD000DF93CF93CDB7DEB7C757D0400FB6F89469
:104BE000DEBF0FBECDBF8091A9018AA79091AA0117
:104BF0009BA78091AB018CA79091AC019DA7809160
:104C0000AD018EA79091AE019FA78091AF0188ABB7
:104C10009091B00199AB8091A1018AA39091A201DA
:104C20009BA38091A3018CA39091A4019DA380914B
:104C3000A5018EA39091A6019FA38091A70188A7AB
:104C40009091A80199A789A599A9981708F440C03F
:104C500089A599A9891709F0E7C188A598A9981786
:104C6000B8F188A598A9891709F0DEC18FA19FA581
:104C7000981770F18FA19FA5891709F0D5C18EA152
:104C80009EA5981728F18EA19EA5891709F0CCC181
:104C90008DA19DA59817E0F08DA19DA5891709F01C
:104CA000C3C18CA19CA5981798F08CA19CA58917CD
:104CB00009F0BAC18BA19BA5981750F08BA19BA5B9
:104CC000891709F0B1C18AA19AA5981708F0ACC15B
:104CD000E8E5F0E08081882F90E080749070082EE5
:104CE000892F000C881F990B000C881F991F0097B3
:104CF00009F404C4A8E5B0E0E8E5F0E08081806450
:104D00008C938091A9018A8F9091AA019B8F8091A9
:104D1000AB018C8F9091AC019D8F8091AD018E8FF6
:104D20009091AE019F8F8091AF0188A39091B001C7
:104D300099A381E08AAB1BAA1CAA1DAA1EAA1FAABE
:104D400018AE19AE9A8D8AA9980F9AAF91E0239662
:104D50009FAF23978AAD9A8D891718F023961FAEBF
:104D600023978B8D9BA9890F8BAF81E024968FAF02
:104D700024979BAD8B8D981718F024961FAE24971F
:104D800023969FAD23978BAD980F25969FAF2597C0
:104D900091E026969FAF269725968FAD25979BADE0
:104DA000891718F026961FAE269724968FAD249764
:104DB00026969FAD2697892B24968FAF249725960C
:104DC0008FAD25978BAF9C8D8CA9980F9CAF91E0F0
:104DD00027969FAF27978CAD9C8D891718F0279643
:104DE0001FAE279724968FAD24979CAD890F2896E8
:104DF0008FAF289781E029968FAF299728969FAD8E
:104E000028978CAD981718F029961FAE29972796EA
:104E10009FAD279729968FAD2997982B27969FAFFF
:104E2000279728969FAD28979CAF8D8D9DA9890FB8
:104E30008DAF81E02A968FAF2A979DAD8D8D981703
:104E400018F02A961FAE2A9727969FAD27978DAD0B
:104E5000980F2B969FAF2B9791E02C969FAF2C9796
:104E60002B968FAD2B979DAD891718F02C961FAE02
:104E70002C972A968FAD2A972C969FAD2C97892B2D
:104E80002A968FAF2A972B968FAD2B978DAF9E8D3D
:104E90008EA9980F9EAF91E02D969FAF2D978EAD66
:104EA0009E8D891718F02D961FAE2D972A968FADDF
:104EB0002A979EAD890F2E968FAF2E9781E02F9661
:104EC0008FAF2F972E969FAD2E978EAD981718F017
:104ED0002F961FAE2F972D969FAD2D972F968FADA6
:104EE0002F97982B2D969FAF2D972E969FAD2E978F
:104EF0009EAF8F8D9FA9890F8FAF81E060968FAF96
:104F000060979FAD8F8D981718F060961FAE6097D1
:104F10002D969FAD2D978FAD980F61969FAF61979E
:104F200091E062969FAF629761968FAD61979FAD5A
:104F3000891718F062961FAE629760968FAD6097E2
:104F400062969FAD6297892B60968FAF609761964E
:104F50008FAD61978FAF98A188AD980F21969FAFC5
:104F6000219791E063969FAF639721968FAD21972C
:104F700098A1891718F063961FAE639760968FAD5E
:104F8000609721969FAD2197890F64968FAF6497A4
:104F900081E065968FAF659764969FAD6497219683
:104FA0008FAD2197981718F065961FAE6597639699
:104FB0009FAD639765968FAD6597982B63969FAF6E
:104FC000639764969FAD649721969FAF219789A1BF
:104FD00099AD890F22968FAF229763968FAD639715
:104FE00022969FAD2297890F22968FAF22972AADE6
:104FF0003BAD4CAD5DAD6EAD7FAD21968FAD2197D4
:1050000022969FAD22972093A9013093AA01409345
:10501000AB015093AC016093AD017093AE018093EE
:10502000AF019093B0016AC28091A9018A8B9091DF
:10503000AA019B8B8091AB018C8B9091AC019D8BD5
:105040008091AD018E8B9091AE019F8B8091AF01CD
:10505000888F9091B001998F8091A1018A8790915A
:10506000A2019B878091A3018C879091A4019D87C9
:105070008091A5018E879091A6019F878091A701BD
:10508000888B9091A801998B8A899A85891709F054
:1050900025C28B899B85891709F020C28C899C8544
:1050A000891709F01BC28D899D85891709F016C2E1
:1050B0008E899E85891709F011C28F899F8589176E
:1050C00009F00CC2888D9889891709F007C2898D6B
:1050D0009989891709F002C2E4E4F0E08091B101F6
:1050E00080958083A8E5B0E0E8E5F0E08081806409
:1050F0008C938091A9018A839091AA019B838091CE
:10510000AB018C839091AC019D838091AD018E8326
:105110009091AE019F838091AF0188879091B001FB
:10512000998781E066968FAF669767961FAE6797FF
:1051300068961FAE689769961FAE69976A961FAE0C
:105140006A976B961FAE6B976C961FAE6C976D96B9
:105150001FAE6D979A8166968FAD6697980F6E9683
:105160009FAF6E9791E0A6969FAFA6976E968FAD74
:105170006E979A81891718F0A6961FAEA6978B8115
:1051800067969FAD6797890F6F968FAF6F9781E096
:10519000A7968FAFA7976F969FAD6F978B81981744
:1051A00018F0A7961FAEA797A6969FADA6976F96E5
:1051B0008FAD6F97980FA8969FAFA89791E0A9968B
:1051C0009FAFA997A8968FADA8976F969FAD6F9741
:1051D000891718F0A9961FAEA997A7968FADA79724
:1051E000A9969FADA997892BA7968FAFA797A89649
:1051F0008FADA8976F968FAF6F979C8168968FAD94
:105200006897980FA0969FAFA09791E0AA969FAF3E
:10521000AA97A0968FADA0979C81891718F0AA969F
:105220001FAEAA97A7968FADA797A0969FADA09700
:10523000890FAB968FAFAB9781E0AC968FAFAC97F1
:10524000AB969FADAB97A0968FADA097981718F02F
:10525000AC961FAEAC97AA969FADAA97AC968FADB1
:10526000AC97982BAA969FAFAA97AB969FADAB979A
:10527000A0969FAFA0978D8169969FAD6997890F82
:10528000A1968FAFA19781E0AD968FAFAD97A19614
:105290009FADA1978D81981718F0AD961FAEAD9771
:1052A000AA969FADAA97A1968FADA197980FAE969B
:1052B0009FAFAE9791E0AF969FAFAF97AE968FAD91
:1052C000AE97A1969FADA197891718F0AF961FAE24
:1052D000AF97AD968FADAD97AF969FADAF97892B3A
:1052E000AD968FAFAD97AE968FADAE97A1968FAFBF
:1052F000A1979E816A968FAD6A97980FA2969FAFED
:10530000A29791E0E0969FAFE097A2968FADA2970B
:105310009E81891718F0E0961FAEE097AD968FAD8D
:10532000AD97A2969FADA297890FE1968FAFE197B7
:1053300081E0E2968FAFE297E1969FADE197A2966A
:105340008FADA297981718F0E2961FAEE297E096FD
:105350009FADE097E2968FADE297982BE0969FAFD6
:10536000E097E1969FADE197A2969FAFA2978F81BC
:105370006B969FAD6B97890FA3968FAFA39781E034
:10538000E3968FAFE397A3969FADA3978F8198176E
:1053900018F0E3961FAEE397E0969FADE097A396D3
:1053A0008FADA397980FE4969FAFE49791E0E596B1
:1053B0009FAFE597E4968FADE497A3969FADA39733
:1053C000891718F0E5961FAEE597E3968FADE39742
:1053D000E5969FADE597892BE3968FAFE397E4962B
:1053E0008FADE497A3968FAFA39798856C968FADFA
:1053F0006C97980FA4969FAFA49791E0E6969FAF05
:10540000E697A4968FADA4979885891718F0E6962D
:105410001FAEE697E3968FADE397A4969FADA49752
:10542000890FE7968FAFE79781E0E8968FAFE8970F
:10543000E7969FADE797A4968FADA497981718F0BD
:10544000E8961FAEE897E6969FADE697E8968FAD93
:10545000E897982BE6969FAFE697E7969FADE7977C
:10546000A4969FAFA49789856D969FAD6D97890F80
:10547000A5968FAFA597E6968FADE697A5969FADBB
:10548000A597890FA5968FAFA5976E962FAD6E97AE
:105490006F963FAD6F97A0964FADA097A1965FAD69
:1054A000A197A2966FADA297A3967FADA397A4965E
:1054B0008FADA497A5969FADA5972093A901309392
:1054C000AA014093AB015093AC016093AD0170937E
:1054D000AE018093AF019093B00110C080919F0105
:1054E0009091A001009729F0E0919F01F091A00117
:1054F00009950E94AF2581E0898301C019828981C5
:10550000C958DF4F0FB6F894DEBF0FBECDBFCF91A5
:10551000DF9108951F920F920FB60F9211242F93CF
:105520003F934F935F936F937F938F939F93AF932B
:10553000BF93EF93FF93DF93CF93CDB7DEB7C657FB
:10554000D040DEBFCDBF8091A90189A79091AA016B
:105550009AA78091AB018BA79091AC019CA78091F9
:10556000AD018DA79091AE019EA78091AF018FA74D
:105570009091B00198AB8091A10189A39091A20173
:105580009AA38091A3018BA39091A4019CA38091E5
:10559000A5018DA39091A6019EA38091A7018FA341
:1055A0009091A80198A788A598A9981708F440C0D9
:1055B00088A598A9891709F0C2C18FA19FA598173E
:1055C000B8F18FA19FA5891709F0B9C18EA19EA539
:1055D000981770F18EA19EA5891709F0B0C18DA111
:1055E0009DA5981728F18DA19DA5891709F0A7C140
:1055F0008CA19CA59817E0F08CA19CA5891709F0B7
:105600009EC18BA19BA5981798F08BA19BA589178C
:1056100009F095C18AA19AA5981750F08AA19AA578
:10562000891709F08CC189A199A5981708F087C13D
:105630008091A901898F9091AA019A8F8091AB01E5
:105640008B8F9091AC019C8F8091AD018D8F90914B
:10565000AE019E8F8091AF018F8F9091B00198A382
:1056600081E089AB1AAA1BAA1CAA1DAA1EAA1FAAFE
:1056700018AE998D89A9980F99AF91E022969FAFA6
:10568000229789AD998D891718F022961FAE22971F
:105690008A8D9AA9890F8AAF81E023968FAF2397CD
:1056A0009AAD8A8D981718F023961FAE23972296ED
:1056B0009FAD22978AAD980F24969FAF249791E0D3
:1056C00025969FAF259724968FAD24979AAD89177D
:1056D00018F025961FAE259723968FAD2397259614
:1056E0009FAD2597892B23968FAF239724968FAD57
:1056F00024978AAF9B8D8BA9980F9BAF91E026963C
:105700009FAF26978BAD9B8D891718F026961FAEFD
:10571000269723968FAD23979BAD890F27968FAF42
:10572000279781E028968FAF289727969FAD2797D8
:105730008BAD981718F028961FAE289726969FAD28
:10574000269728968FAD2897982B26969FAF269759
:1057500027969FAD27979BAF8C8D9CA9890F8CAF07
:1057600081E029968FAF29979CAD8C8D981718F002
:1057700029961FAE299726969FAD26978CAD980F38
:105780002A969FAF2A9791E02B969FAF2B972A9648
:105790008FAD2A979CAD891718F02B961FAE2B97CB
:1057A00029968FAD29972B969FAD2B97892B2996FC
:1057B0008FAF29972A968FAD2A978CAF9D8D8DA993
:1057C000980F9DAF91E02C969FAF2C978DAD9D8D3E
:1057D000891718F02C961FAE2C9729968FAD299714
:1057E0009DAD890F2D968FAF2D9781E02E968FAFAF
:1057F0002E972D969FAD2D978DAD981718F02E965C
:105800001FAE2E972C969FAD2C972E968FAD2E9770
:10581000982B2C969FAF2C972D969FAD2D979DAFD3
:105820008E8D9EA9890F8EAF81E02F968FAF2F9717
:105830009EAD8E8D981718F02F961FAE2F972C9631
:105840009FAD2C978EAD980F60969FAF609791E0BB
:1058500061969FAF619760968FAD60979EAD8917F7
:1058600018F061961FAE61972F968FAD2F976196B6
:105870009FAD6197892B2F968FAF2F9760968FAD35
:1058800060978EAF9F8D8FA9980F9FAF91E0629622
:105890009FAF62978FAD9F8D891718F062961FAEEC
:1058A00062972F968FAD2F979FAD890F63968FAF1D
:1058B000639781E064968FAF649763969FAD63971B
:1058C0008FAD981718F064961FAE649762969FADDF
:1058D000629764968FAD6497982B62969FAF62979C
:1058E00063969FAD63979FAF88A198AD890F21966E
:1058F0008FAF219762968FAD629721969FAD2197CA
:10590000890F21968FAF219729AD3AAD4BAD5CAD94
:105910006DAD7EAD8FAD21969FAD21972093A901EE
:105920003093AA014093AB015093AC016093AD0159
:105930007093AE018093AF019093B0016EC28091DD
:10594000A901898B9091AA019A8B8091AB018B8BD5
:105950009091AC019C8B8091AD018D8B9091AE01AB
:105960009E8B8091AF018F8B9091B001988F809129
:10597000A10189879091A2019A878091A3018B87C9
:105980009091A4019C878091A5018D879091A6019B
:105990009E878091A7018F879091A801988B898914
:1059A0009985891709F01EC28A899A85891709F095
:1059B00019C28B899B85891709F014C28C899C8533
:1059C000891709F00FC28D899D85891709F00AC2D0
:1059D0008E899E85891709F005C28F899F85891751
:1059E00009F000C2888D9889891709F0FBC1E4E4A9
:1059F000F0E08091B101809580838091A901898335
:105A00009091AA019A838091AB018B839091AC0114
:105A10009C838091AD018D839091AE019E83809196
:105A2000AF018F839091B001988781E065968FAF29
:105A3000659766961FAE669767961FAE67976896DE
:105A40001FAE689769961FAE69976A961FAE6A97F0
:105A50006B961FAE6B976C961FAE6C97998165968F
:105A60008FAD6597980F6D969FAF6D9791E0A59656
:105A70009FAFA5976D968FAD6D979981891718F097
:105A8000A5961FAEA5978A8166969FAD6697890FEA
:105A90006E968FAF6E9781E0A6968FAFA6976E96A3
:105AA0009FAD6E978A81981718F0A6961FAEA6979D
:105AB000A5969FADA5976E968FAD6E97980FA796FA
:105AC0009FAFA79791E0A8969FAFA897A7968FAD95
:105AD000A7976E969FAD6E97891718F0A8961FAE80
